{
  "contractName": "SmartAuction",
  "abi": [
    {
      "inputs": [
        {
          "internalType": "uint256",
          "name": "_biddingTime",
          "type": "uint256"
        }
      ],
      "payable": false,
      "stateMutability": "nonpayable",
      "type": "constructor"
    },
    {
      "anonymous": false,
      "inputs": [
        {
          "indexed": false,
          "internalType": "address",
          "name": "winner",
          "type": "address"
        },
        {
          "indexed": false,
          "internalType": "uint256",
          "name": "amount",
          "type": "uint256"
        }
      ],
      "name": "AuctionEnded",
      "type": "event"
    },
    {
      "anonymous": false,
      "inputs": [
        {
          "indexed": false,
          "internalType": "address",
          "name": "bidder",
          "type": "address"
        },
        {
          "indexed": false,
          "internalType": "uint256",
          "name": "amount",
          "type": "uint256"
        }
      ],
      "name": "HighestBidIncrement",
      "type": "event"
    },
    {
      "constant": true,
      "inputs": [],
      "name": "auctionEnd",
      "outputs": [
        {
          "internalType": "uint256",
          "name": "",
          "type": "uint256"
        }
      ],
      "payable": false,
      "stateMutability": "view",
      "type": "function"
    },
    {
      "constant": true,
      "inputs": [],
      "name": "beneficiary",
      "outputs": [
        {
          "internalType": "address payable",
          "name": "",
          "type": "address"
        }
      ],
      "payable": false,
      "stateMutability": "view",
      "type": "function"
    },
    {
      "constant": true,
      "inputs": [],
      "name": "highestBid",
      "outputs": [
        {
          "internalType": "uint256",
          "name": "",
          "type": "uint256"
        }
      ],
      "payable": false,
      "stateMutability": "view",
      "type": "function"
    },
    {
      "constant": true,
      "inputs": [],
      "name": "highestBidder",
      "outputs": [
        {
          "internalType": "address",
          "name": "",
          "type": "address"
        }
      ],
      "payable": false,
      "stateMutability": "view",
      "type": "function"
    },
    {
      "constant": false,
      "inputs": [],
      "name": "bid",
      "outputs": [],
      "payable": true,
      "stateMutability": "payable",
      "type": "function"
    },
    {
      "constant": false,
      "inputs": [],
      "name": "withdraw",
      "outputs": [
        {
          "internalType": "bool",
          "name": "",
          "type": "bool"
        }
      ],
      "payable": false,
      "stateMutability": "nonpayable",
      "type": "function"
    },
    {
      "constant": false,
      "inputs": [],
      "name": "AuctionEnd",
      "outputs": [],
      "payable": false,
      "stateMutability": "nonpayable",
      "type": "function"
    },
    {
      "constant": true,
      "inputs": [],
      "name": "auctionAlreadyEnded",
      "outputs": [
        {
          "internalType": "bool",
          "name": "",
          "type": "bool"
        }
      ],
      "payable": false,
      "stateMutability": "view",
      "type": "function"
    }
  ],
  "bytecode": "0x608060405234801561001057600080fd5b5060405161088d38038061088d8339818101604052602081101561003357600080fd5b8101908080519060200190929190505050336000806101000a81548173ffffffffffffffffffffffffffffffffffffffff021916908373ffffffffffffffffffffffffffffffffffffffff160217905550804201600181905550506107f08061009d6000396000f3fe60806040526004361061007b5760003560e01c80633ccfd60b1161004e5780633ccfd60b146101235780635983708c1461015257806391f9015714610181578063d57bde79146101d85761007b565b80631998aeef146100805780632a24f46c1461008a57806332ffdf80146100b557806338af3eed146100cc575b600080fd5b610088610203565b005b34801561009657600080fd5b5061009f610418565b6040518082815260200191505060405180910390f35b3480156100c157600080fd5b506100ca61041e565b005b3480156100d857600080fd5b506100e161062f565b604051808273ffffffffffffffffffffffffffffffffffffffff1673ffffffffffffffffffffffffffffffffffffffff16815260200191505060405180910390f35b34801561012f57600080fd5b50610138610654565b604051808215151515815260200191505060405180910390f35b34801561015e57600080fd5b50610167610778565b604051808215151515815260200191505060405180910390f35b34801561018d57600080fd5b5061019661078f565b604051808273ffffffffffffffffffffffffffffffffffffffff1673ffffffffffffffffffffffffffffffffffffffff16815260200191505060405180910390f35b3480156101e457600080fd5b506101ed6107b5565b6040518082815260200191505060405180910390f35b60015442111561027b576040517f08c379a00000000000000000000000000000000000000000000000000000000081526004018080602001828103825260148152602001807f41756374696f6e20616c7265616479206f76657200000000000000000000000081525060200191505060405180910390fd5b60035434116102f2576040517f08c379a000000000000000000000000000000000000000000000000000000000815260040180806020018281038252601e8152602001807f546865726520697320616c72656164792061206869676865722020626964000081525060200191505060405180910390fd5b6000600354146103635760035460046000600260009054906101000a900473ffffffffffffffffffffffffffffffffffffffff1673ffffffffffffffffffffffffffffffffffffffff1673ffffffffffffffffffffffffffffffffffffffff16815260200190815260200160002050505b3460038190555033600260006101000a81548173ffffffffffffffffffffffffffffffffffffffff021916908373ffffffffffffffffffffffffffffffffffffffff1602179055507f0995dde7d1c88a7c5d723511bf4daf77662c9d0d15566686e47d2f1fdc5b2e593334604051808373ffffffffffffffffffffffffffffffffffffffff1673ffffffffffffffffffffffffffffffffffffffff1681526020018281526020019250505060405180910390a1565b60015481565b600154421015610496576040517f08c379a00000000000000000000000000000000000000000000000000000000081526004018080602001828103825260158152602001807f41756374696f6e206e6f742079657420656e646564000000000000000000000081525060200191505060405180910390fd5b600560009054906101000a900460ff1615610519576040517f08c379a00000000000000000000000000000000000000000000000000000000081526004018080602001828103825260158152602001807f41756374696f6e456e64207761732063616c6c6564000000000000000000000081525060200191505060405180910390fd5b6001600560006101000a81548160ff0219169083151502179055506000809054906101000a900473ffffffffffffffffffffffffffffffffffffffff1673ffffffffffffffffffffffffffffffffffffffff166108fc6003549081150290604051600060405180830381858888f1935050505015801561059d573d6000803e3d6000fd5b507fdaec4582d5d9595688c8c98545fdd1c696d41c6aeaeb636737e84ed2f5c00eda600260009054906101000a900473ffffffffffffffffffffffffffffffffffffffff16600354604051808373ffffffffffffffffffffffffffffffffffffffff1673ffffffffffffffffffffffffffffffffffffffff1681526020018281526020019250505060405180910390a1565b6000809054906101000a900473ffffffffffffffffffffffffffffffffffffffff1681565b600080600460003373ffffffffffffffffffffffffffffffffffffffff1673ffffffffffffffffffffffffffffffffffffffff168152602001908152602001600020549050600081111561076f576000600460003373ffffffffffffffffffffffffffffffffffffffff1673ffffffffffffffffffffffffffffffffffffffff168152602001908152602001600020819055503373ffffffffffffffffffffffffffffffffffffffff166108fc829081150290604051600060405180830381858888f1935050505061076e5780600460003373ffffffffffffffffffffffffffffffffffffffff1673ffffffffffffffffffffffffffffffffffffffff168152602001908152602001600020819055506000915050610775565b5b60019150505b90565b6000600560009054906101000a900460ff16905090565b600260009054906101000a900473ffffffffffffffffffffffffffffffffffffffff1681565b6003548156fea265627a7a7231582043ffe3a19b865fdf7a6bf8afbe373f0e78150b6791b454e9b77b592bdea3b8aa64736f6c63430005100032",
  "source": "// SPDX-License-Identifier: MIT\npragma solidity >=0.4.22 <0.9.0;\n\ncontract SmartAuction {\n    address payable public  beneficiary;\n    uint public auctionEnd;\n    address public highestBidder;\n    uint public highestBid;\n    mapping(address => uint) pendingReturns;\n    bool ended;\n    event HighestBidIncrement(address bidder,uint amount);\n    event AuctionEnded(address winner,uint amount);\n\n    constructor(uint _biddingTime) public {\n       beneficiary=msg.sender;\n       auctionEnd=block.timestamp + _biddingTime;\n    }\n\n    function bid() public payable   {\n        require(block.timestamp  <= auctionEnd ,\"Auction already over\");\n        require(msg.value > highestBid,\"There is already a higher  bid\");\n        if(highestBid != 0){\n           pendingReturns[highestBidder]==highestBid;\n        }    \n        highestBid= msg.value;\n        highestBidder=msg.sender; \n        emit HighestBidIncrement(msg.sender, msg.value);\n    }\n    \n    function withdraw() public returns (bool){\n\n        uint amount= pendingReturns[msg.sender];\n        if(amount >0){\n              pendingReturns[msg.sender]=0;\n              if(! msg.sender.send(amount)){\n                  pendingReturns[msg.sender]=amount;\n                  return false;\n              }\n\n        } \n        return true;\n     }   \n\n     function AuctionEnd()  public {\n       require(block.timestamp >= auctionEnd,\"Auction not yet ended\");       \n       require(!ended,\"AuctionEnd was called\");\n       ended=true;\n       beneficiary.transfer(highestBid);\n       emit AuctionEnded(highestBidder,highestBid);\n     } \n     \n     function auctionAlreadyEnded() public view returns (bool){\n         return ended;\n     }\n}\n",
  "sourcePath": "/home/anju/ethereum-projects/smart-auction/contracts/SmartAuction.sol",
  "compiler": {
    "name": "solc",
    "version": "0.5.16+commit.9c3226ce.Emscripten.clang"
  },
  "schemaVersion": "3.2.2",
  "updatedAt": "2021-01-04T01:15:05.340Z",
  "networkType": "ethereum",
  "devdoc": {
    "methods": {}
  },
  "userdoc": {
    "methods": {}
  }
}